{
  "contractName": "Cheque",
  "abi": [
    {
      "inputs": [],
      "payable": true,
      "stateMutability": "payable",
      "type": "constructor",
      "signature": "constructor"
    },
    {
      "constant": false,
      "inputs": [
        {
          "name": "amount",
          "type": "uint256"
        },
        {
          "name": "nonce",
          "type": "uint256"
        },
        {
          "name": "sig",
          "type": "bytes"
        }
      ],
      "name": "claimPayment",
      "outputs": [
        {
          "name": "",
          "type": "bool"
        }
      ],
      "payable": false,
      "stateMutability": "nonpayable",
      "type": "function",
      "signature": "0xa90ae887"
    },
    {
      "constant": true,
      "inputs": [],
      "name": "getBalance",
      "outputs": [
        {
          "name": "",
          "type": "uint256"
        }
      ],
      "payable": false,
      "stateMutability": "view",
      "type": "function",
      "signature": "0x12065fe0"
    }
  ],
  "bytecode": "0x608060405233600160006101000a81548173ffffffffffffffffffffffffffffffffffffffff021916908373ffffffffffffffffffffffffffffffffffffffff160217905550610601806100546000396000f3fe60806040526004361061004c576000357c0100000000000000000000000000000000000000000000000000000000900463ffffffff16806312065fe014610051578063a90ae8871461007c575b600080fd5b34801561005d57600080fd5b50610066610170565b6040518082815260200191505060405180910390f35b34801561008857600080fd5b506101566004803603606081101561009f57600080fd5b810190808035906020019092919080359060200190929190803590602001906401000000008111156100d057600080fd5b8201836020820111156100e257600080fd5b8035906020019184600183028401116401000000008311171561010457600080fd5b91908080601f016020809104026020016040519081016040528093929190818152602001838380828437600081840152601f19601f82011690508083019250505050505050919291929050505061018f565b604051808215151515815260200191505060405180910390f35b60003073ffffffffffffffffffffffffffffffffffffffff1631905090565b600080670de0b6b3a76400008502905060008085815260200190815260200160002060009054906101000a900460ff16151515610234576040517f08c379a000000000000000000000000000000000000000000000000000000000815260040180806020018281038252601b8152602001807f4e6f6e63652068617320616c7265616479206265656e2075736564000000000081525060200191505060405180910390fd5b600160008086815260200190815260200160002060006101000a81548160ff021916908315150217905550600061031e33838730604051602001808573ffffffffffffffffffffffffffffffffffffffff1673ffffffffffffffffffffffffffffffffffffffff166c010000000000000000000000000281526014018481526020018381526020018273ffffffffffffffffffffffffffffffffffffffff1673ffffffffffffffffffffffffffffffffffffffff166c0100000000000000000000000002815260140194505050505060405160208183030381529060405280519060200120610442565b9050600160009054906101000a900473ffffffffffffffffffffffffffffffffffffffff1673ffffffffffffffffffffffffffffffffffffffff16610363828661049a565b73ffffffffffffffffffffffffffffffffffffffff161415156103ee576040517f08c379a00000000000000000000000000000000000000000000000000000000081526004018080602001828103825260138152602001807f5369676e6572206973206e6f74206f776e65720000000000000000000000000081525060200191505060405180910390fd5b3373ffffffffffffffffffffffffffffffffffffffff166108fc839081150290604051600060405180830381858888f19350505050158015610434573d6000803e3d6000fd5b506001925050509392505050565b60008160405160200180807f19457468657265756d205369676e6564204d6573736167653a0a333200000000815250601c01828152602001915050604051602081830303815290604052805190602001209050919050565b6000806000806104a985610527565b80935081945082955050505060018684848460405160008152602001604052604051808581526020018460ff1660ff1681526020018381526020018281526020019450505050506020604051602081039080840390855afa158015610512573d6000803e3d6000fd5b50505060206040510351935050505092915050565b6000806000604184511415156105a5576040517f08c379a000000000000000000000000000000000000000000000000000000000815260040180806020018281038252601a8152602001807f496e636f7272656374207369676e6174757265206c656e67746800000000000081525060200191505060405180910390fd5b60008060006020870151925060408701519150606087015160001a9050808383955095509550505050919390925056fea165627a7a723058202b7d2d75d0242400ab10a2437b3d498175458fee1eb7a0be0dc44aa43668614b0029",
  "source": "pragma solidity ^0.5.0;\n\ncontract Cheque {\n    mapping (uint => bool) usedNonces;\n    address owner;\n\n    constructor() public payable {\n        owner = msg.sender;\n    }\n\n    function splitSignature(bytes memory sig) internal pure returns (uint8, bytes32, bytes32) {\n        require (sig.length == 65, \"Incorrect signature length\");\n\n        bytes32 r;\n        bytes32 s;\n        uint8 v;\n\n        assembly {\n            //first 32 bytes, after the length prefix\n            r := mload(add(sig, 0x20))\n            //next 32 bytes\n            s := mload(add(sig, 0x40))\n            //final byte, first of next 32 bytes\n            v := byte(0, mload(add(sig, 0x60)))\n        }\n\n        return (v, r, s);\n    }\n    \n    function recoverSigner(bytes32 message, bytes memory sig) internal pure returns (address) {\n        uint8 v;\n        bytes32 r;\n        bytes32 s;\n\n        (v, r, s) = splitSignature(sig);\n\n        return ecrecover(message, v, r, s);\n    }\n    \n    function prefixed(bytes32 hash) internal pure returns (bytes32) {\n        return keccak256(abi.encodePacked(\"\\x19Ethereum Signed Message:\\n32\", hash));\n    }\n    \n    function claimPayment(uint amount, uint nonce, bytes memory sig) public returns (bool) {\n        uint amountWei = amount * 1e18;\n        require(!usedNonces[nonce], \"Nonce has already been used\");\n        usedNonces[nonce] = true;\n\n        bytes32 message = prefixed(keccak256(abi.encodePacked(msg.sender, amountWei, nonce, this)));\n\n        require(recoverSigner(message, sig) == owner, \"Signer is not owner\");\n\n        msg.sender.transfer(amountWei);\n\n        return true;\n    }\n\n    function getBalance() public view returns(uint) {\n        return address(this).balance;\n    }\n}",
  "sourcePath": "/Users/CryptoWork/Desktop/cheque_tutorial/contracts/Cheque.sol",
  "compiler": {
    "name": "solc",
    "version": "0.5.0+commit.1d4f565a.Emscripten.clang"
  },
  "schemaVersion": "3.0.0",
  "updatedAt": "2019-10-02T10:56:05.131Z",
  "devdoc": {
    "methods": {}
  },
  "userdoc": {
    "methods": {}
  }
}